:100000000C942A000C9434000C9434000C943400AA
:100010000C9434000C9434000C9434000C94340090
:100020000C9434000C9434000C9434000C94340080
:100030000C9434000C9434000C9434000C94340070
:100040000C9434000C9434000C9434000C94340060
:100050000C94340011241FBECFE5D4E0DEBFCDBF29
:100060000E9436000C9474000C9400008FEF87BB44
:1000700084BB11BA24E091E0AAE2E7E082E078E0F4
:1000800055E0F3E269E046E033E025BB809B02C027
:1000900098BB0AC0819B02C028BB06C0829B02C0DD
:1000A000E8BB02C08399A8BB85BB809B02C088BB0C
:1000B0000AC0819B02C058BB06C0829B02C078BBAD
:1000C00002C0839918BA95BB809B02C038BBDDCFB4
:1000D000819B02C048BBD9CF829B02C068BBD5CFF1
:0C00E000839BD3CFF8BBD1CFF894FFCFA7
:00000001FF
